{
  "_format": "hh-sol-artifact-1",
  "contractName": "CampaignFactory",
  "sourceName": "contracts/Campaign.sol",
  "abi": [
    {
      "inputs": [
        {
          "internalType": "uint256",
          "name": "minimum",
          "type": "uint256"
        },
        {
          "internalType": "string",
          "name": "_name",
          "type": "string"
        }
      ],
      "name": "createCampaign",
      "outputs": [],
      "stateMutability": "nonpayable",
      "type": "function"
    },
    {
      "inputs": [
        {
          "internalType": "uint256",
          "name": "",
          "type": "uint256"
        }
      ],
      "name": "deployedCampaigns",
      "outputs": [
        {
          "internalType": "address",
          "name": "addressOfNewCampaign",
          "type": "address"
        },
        {
          "internalType": "string",
          "name": "name",
          "type": "string"
        },
        {
          "internalType": "uint256",
          "name": "minimumContribution",
          "type": "uint256"
        }
      ],
      "stateMutability": "view",
      "type": "function"
    },
    {
      "inputs": [],
      "name": "getDeployedCampaigns",
      "outputs": [
        {
          "components": [
            {
              "internalType": "address",
              "name": "addressOfNewCampaign",
              "type": "address"
            },
            {
              "internalType": "string",
              "name": "name",
              "type": "string"
            },
            {
              "internalType": "uint256",
              "name": "minimumContribution",
              "type": "uint256"
            }
          ],
          "internalType": "struct CampaignFactory.CreateNewCampaign[]",
          "name": "",
          "type": "tuple[]"
        }
      ],
      "stateMutability": "view",
      "type": "function"
    }
  ],
  "bytecode": "0x608060405234801561001057600080fd5b506125dd806100206000396000f3fe60806040523480156200001157600080fd5b5060043610620000465760003560e01c8063339d50a5146200004b5780634220d65614620000835780634acb9d4f14620000a3575b600080fd5b62000069600480360381019062000063919062000473565b620000c5565b6040516200007a939291906200059f565b60405180910390f35b620000a160048036038101906200009b919062000734565b620001b0565b005b620000ad620002bb565b604051620000bc919062000934565b60405180910390f35b60008181548110620000d657600080fd5b90600052602060002090600302016000915090508060000160009054906101000a900473ffffffffffffffffffffffffffffffffffffffff1690806001018054620001219062000987565b80601f01602080910402602001604051908101604052809291908181526020018280546200014f9062000987565b8015620001a05780601f106200017457610100808354040283529160200191620001a0565b820191906000526020600020905b8154815290600101906020018083116200018257829003601f168201915b5050505050908060020154905083565b60008233604051620001c29062000416565b620001cf929190620009bc565b604051809103906000f080158015620001ec573d6000803e3d6000fd5b509050600060405180606001604052808373ffffffffffffffffffffffffffffffffffffffff16815260200184815260200185815250908060018154018082558091505060019003906000526020600020906003020160009091909190915060008201518160000160006101000a81548173ffffffffffffffffffffffffffffffffffffffff021916908373ffffffffffffffffffffffffffffffffffffffff1602179055506020820151816001019081620002a9919062000bbb565b50604082015181600201555050505050565b60606000805480602002602001604051908101604052809291908181526020016000905b828210156200040d57838290600052602060002090600302016040518060600160405290816000820160009054906101000a900473ffffffffffffffffffffffffffffffffffffffff1673ffffffffffffffffffffffffffffffffffffffff1673ffffffffffffffffffffffffffffffffffffffff1681526020016001820180546200036b9062000987565b80601f0160208091040260200160405190810160405280929190818152602001828054620003999062000987565b8015620003ea5780601f10620003be57610100808354040283529160200191620003ea565b820191906000526020600020905b815481529060010190602001808311620003cc57829003601f168201915b5050505050815260200160028201548152505081526020019060010190620002df565b50505050905090565b6119058062000ca383390190565b6000604051905090565b600080fd5b600080fd5b6000819050919050565b6200044d8162000438565b81146200045957600080fd5b50565b6000813590506200046d8162000442565b92915050565b6000602082840312156200048c576200048b6200042e565b5b60006200049c848285016200045c565b91505092915050565b600073ffffffffffffffffffffffffffffffffffffffff82169050919050565b6000620004d282620004a5565b9050919050565b620004e481620004c5565b82525050565b600081519050919050565b600082825260208201905092915050565b60005b838110156200052657808201518184015260208101905062000509565b8381111562000536576000848401525b50505050565b6000601f19601f8301169050919050565b60006200055a82620004ea565b620005668185620004f5565b93506200057881856020860162000506565b62000583816200053c565b840191505092915050565b620005998162000438565b82525050565b6000606082019050620005b66000830186620004d9565b8181036020830152620005ca81856200054d565b9050620005db60408301846200058e565b949350505050565b600080fd5b600080fd5b7f4e487b7100000000000000000000000000000000000000000000000000000000600052604160045260246000fd5b62000627826200053c565b810181811067ffffffffffffffff82111715620006495762000648620005ed565b5b80604052505050565b60006200065e62000424565b90506200066c82826200061c565b919050565b600067ffffffffffffffff8211156200068f576200068e620005ed565b5b6200069a826200053c565b9050602081019050919050565b82818337600083830152505050565b6000620006cd620006c78462000671565b62000652565b905082815260208101848484011115620006ec57620006eb620005e8565b5b620006f9848285620006a7565b509392505050565b600082601f830112620007195762000718620005e3565b5b81356200072b848260208601620006b6565b91505092915050565b600080604083850312156200074e576200074d6200042e565b5b60006200075e858286016200045c565b925050602083013567ffffffffffffffff81111562000782576200078162000433565b5b620007908582860162000701565b9150509250929050565b600081519050919050565b600082825260208201905092915050565b6000819050602082019050919050565b620007d181620004c5565b82525050565b600082825260208201905092915050565b6000620007f582620004ea565b620008018185620007d7565b93506200081381856020860162000506565b6200081e816200053c565b840191505092915050565b620008348162000438565b82525050565b6000606083016000830151620008546000860182620007c6565b50602083015184820360208601526200086e8282620007e8565b915050604083015162000885604086018262000829565b508091505092915050565b60006200089e83836200083a565b905092915050565b6000602082019050919050565b6000620008c0826200079a565b620008cc8185620007a5565b935083602082028501620008e085620007b6565b8060005b8581101562000922578484038952815162000900858262000890565b94506200090d83620008a6565b925060208a01995050600181019050620008e4565b50829750879550505050505092915050565b60006020820190508181036000830152620009508184620008b3565b905092915050565b7f4e487b7100000000000000000000000000000000000000000000000000000000600052602260045260246000fd5b60006002820490506001821680620009a057607f821691505b602082108103620009b657620009b562000958565b5b50919050565b6000604082019050620009d360008301856200058e565b620009e26020830184620004d9565b9392505050565b60008190508160005260206000209050919050565b60006020601f8301049050919050565b600082821b905092915050565b60006008830262000a4d7fffffffffffffffffffffffffffffffffffffffffffffffffffffffffffffffff8262000a0e565b62000a59868362000a0e565b95508019841693508086168417925050509392505050565b6000819050919050565b600062000a9c62000a9662000a908462000438565b62000a71565b62000438565b9050919050565b6000819050919050565b62000ab88362000a7b565b62000ad062000ac78262000aa3565b84845462000a1b565b825550505050565b600090565b62000ae762000ad8565b62000af481848462000aad565b505050565b5b8181101562000b1c5762000b1060008262000add565b60018101905062000afa565b5050565b601f82111562000b6b5762000b3581620009e9565b62000b4084620009fe565b8101602085101562000b50578190505b62000b6862000b5f85620009fe565b83018262000af9565b50505b505050565b600082821c905092915050565b600062000b906000198460080262000b70565b1980831691505092915050565b600062000bab838362000b7d565b9150826002028217905092915050565b62000bc682620004ea565b67ffffffffffffffff81111562000be25762000be1620005ed565b5b62000bee825462000987565b62000bfb82828562000b20565b600060209050601f83116001811462000c33576000841562000c1e578287015190505b62000c2a858262000b9d565b86555062000c9a565b601f19841662000c4386620009e9565b60005b8281101562000c6d5784890151825560018201915060208501945060208101905062000c46565b8683101562000c8d578489015162000c89601f89168262000b7d565b8355505b6001600288020188555050505b50505050505056fe60806040527380aba548ba9fa88eca825cb7f8d188a4449e74436000806101000a81548173ffffffffffffffffffffffffffffffffffffffff021916908373ffffffffffffffffffffffffffffffffffffffff1602179055503480156200006557600080fd5b50604051620019053803806200190583398181016040528101906200008b919062000180565b80600360006101000a81548173ffffffffffffffffffffffffffffffffffffffff021916908373ffffffffffffffffffffffffffffffffffffffff160217905550816004819055505050620001c7565b600080fd5b6000819050919050565b620000f581620000e0565b81146200010157600080fd5b50565b6000815190506200011581620000ea565b92915050565b600073ffffffffffffffffffffffffffffffffffffffff82169050919050565b600062000148826200011b565b9050919050565b6200015a816200013b565b81146200016657600080fd5b50565b6000815190506200017a816200014f565b92915050565b600080604083850312156200019a5762000199620000db565b5b6000620001aa8582860162000104565b9250506020620001bd8582860162000169565b9150509250929050565b61172e80620001d76000396000f3fe6080604052600436106100a75760003560e01c806382fde0931161006457806382fde093146101d85780638813ce12146102035780638a9cfd551461022e578063937e09b114610257578063d7bb99ba14610282578063d7d1bbdb1461028c576100a7565b806303441006146100ac5780630a144391146100d55780633410452a146101125780634051ddac1461013d578063481c6a751461016c57806381d12c5814610197575b600080fd5b3480156100b857600080fd5b506100d360048036038101906100ce9190610ce0565b6102b5565b005b3480156100e157600080fd5b506100fc60048036038101906100f79190610d6b565b6104b6565b6040516101099190610db3565b60405180910390f35b34801561011e57600080fd5b506101276104d6565b6040516101349190610ddd565b60405180910390f35b34801561014957600080fd5b506101526104e3565b604051610163959493929190610e07565b60405180910390f35b34801561017857600080fd5b5061018161052c565b60405161018e9190610e5a565b60405180910390f35b3480156101a357600080fd5b506101be60048036038101906101b99190610ce0565b610552565b6040516101cf959493929190610f0e565b60405180910390f35b3480156101e457600080fd5b506101ed61064d565b6040516101fa9190610ddd565b60405180910390f35b34801561020f57600080fd5b50610218610653565b6040516102259190611117565b60405180910390f35b34801561023a57600080fd5b506102556004803603810190610250919061126e565b6107c9565b005b34801561026357600080fd5b5061026c61092d565b6040516102799190610ddd565b60405180910390f35b61028a610933565b005b34801561029857600080fd5b506102b360048036038101906102ae9190610ce0565b610b26565b005b600360009054906101000a900473ffffffffffffffffffffffffffffffffffffffff1673ffffffffffffffffffffffffffffffffffffffff163373ffffffffffffffffffffffffffffffffffffffff161461030f57600080fd5b600060028281548110610325576103246112dd565b5b906000526020600020906004020190506002600654610344919061136a565b81600301541161035357600080fd5b8060020160149054906101000a900460ff161561036f57600080fd5b8060020160009054906101000a900473ffffffffffffffffffffffffffffffffffffffff1673ffffffffffffffffffffffffffffffffffffffff166108fc82600101549081150290604051600060405180830381858888f193505050501580156103dd573d6000803e3d6000fd5b5060008054906101000a900473ffffffffffffffffffffffffffffffffffffffff1673ffffffffffffffffffffffffffffffffffffffff1663fe73b27f308360020160009054906101000a900473ffffffffffffffffffffffffffffffffffffffff1684600101546040518463ffffffff1660e01b81526004016104639392919061139b565b600060405180830381600087803b15801561047d57600080fd5b505af1158015610491573d6000803e3d6000fd5b5050505060018160020160146101000a81548160ff0219169083151502179055505050565b60056020528060005260406000206000915054906101000a900460ff1681565b6000600280549050905090565b600080600080600060045447600280549050600654600360009054906101000a900473ffffffffffffffffffffffffffffffffffffffff16945094509450945094509091929394565b600360009054906101000a900473ffffffffffffffffffffffffffffffffffffffff1681565b6002818154811061056257600080fd5b906000526020600020906004020160009150905080600001805461058590611401565b80601f01602080910402602001604051908101604052809291908181526020018280546105b190611401565b80156105fe5780601f106105d3576101008083540402835291602001916105fe565b820191906000526020600020905b8154815290600101906020018083116105e157829003601f168201915b5050505050908060010154908060020160009054906101000a900473ffffffffffffffffffffffffffffffffffffffff16908060020160149054906101000a900460ff16908060030154905085565b60065481565b60606002805480602002602001604051908101604052809291908181526020016000905b828210156107c057838290600052602060002090600402016040518060a00160405290816000820180546106aa90611401565b80601f01602080910402602001604051908101604052809291908181526020018280546106d690611401565b80156107235780601f106106f857610100808354040283529160200191610723565b820191906000526020600020905b81548152906001019060200180831161070657829003601f168201915b50505050508152602001600182015481526020016002820160009054906101000a900473ffffffffffffffffffffffffffffffffffffffff1673ffffffffffffffffffffffffffffffffffffffff1673ffffffffffffffffffffffffffffffffffffffff1681526020016002820160149054906101000a900460ff1615151515815260200160038201548152505081526020019060010190610677565b50505050905090565b600360009054906101000a900473ffffffffffffffffffffffffffffffffffffffff1673ffffffffffffffffffffffffffffffffffffffff163373ffffffffffffffffffffffffffffffffffffffff161461082357600080fd5b60006040518060a001604052808581526020018481526020018373ffffffffffffffffffffffffffffffffffffffff16815260200160001515815260200160008152509050600281908060018154018082558091505060019003906000526020600020906004020160009091909190915060008201518160000190816108a991906115de565b506020820151816001015560408201518160020160006101000a81548173ffffffffffffffffffffffffffffffffffffffff021916908373ffffffffffffffffffffffffffffffffffffffff16021790555060608201518160020160146101000a81548160ff02191690831515021790555060808201518160030155505050505050565b60045481565b600454341161094157600080fd5b60001515600560003373ffffffffffffffffffffffffffffffffffffffff1673ffffffffffffffffffffffffffffffffffffffff16815260200190815260200160002060009054906101000a900460ff16151503610a0a576001600560003373ffffffffffffffffffffffffffffffffffffffff1673ffffffffffffffffffffffffffffffffffffffff16815260200190815260200160002060006101000a81548160ff02191690831515021790555060066000815480929190610a04906116b0565b91905055505b60008054906101000a900473ffffffffffffffffffffffffffffffffffffffff1673ffffffffffffffffffffffffffffffffffffffff1663fe73b27f3330346040518463ffffffff1660e01b8152600401610a679392919061139b565b600060405180830381600087803b158015610a8157600080fd5b505af1158015610a95573d6000803e3d6000fd5b5050505060008054906101000a900473ffffffffffffffffffffffffffffffffffffffff1673ffffffffffffffffffffffffffffffffffffffff166333520898336040518263ffffffff1660e01b8152600401610af29190610e5a565b600060405180830381600087803b158015610b0c57600080fd5b505af1158015610b20573d6000803e3d6000fd5b50505050565b600060028281548110610b3c57610b3b6112dd565b5b90600052602060002090600402019050600560003373ffffffffffffffffffffffffffffffffffffffff1673ffffffffffffffffffffffffffffffffffffffff16815260200190815260200160002060009054906101000a900460ff16610ba257600080fd5b60001515600160003373ffffffffffffffffffffffffffffffffffffffff1673ffffffffffffffffffffffffffffffffffffffff168152602001908152602001600020600084815260200190815260200160002060009054906101000a900460ff16151514610c1057600080fd5b60018060003373ffffffffffffffffffffffffffffffffffffffff1673ffffffffffffffffffffffffffffffffffffffff168152602001908152602001600020600084815260200190815260200160002060006101000a81548160ff021916908315150217905550806003016000815480929190610c8d906116b0565b91905055505050565b6000604051905090565b600080fd5b600080fd5b6000819050919050565b610cbd81610caa565b8114610cc857600080fd5b50565b600081359050610cda81610cb4565b92915050565b600060208284031215610cf657610cf5610ca0565b5b6000610d0484828501610ccb565b91505092915050565b600073ffffffffffffffffffffffffffffffffffffffff82169050919050565b6000610d3882610d0d565b9050919050565b610d4881610d2d565b8114610d5357600080fd5b50565b600081359050610d6581610d3f565b92915050565b600060208284031215610d8157610d80610ca0565b5b6000610d8f84828501610d56565b91505092915050565b60008115159050919050565b610dad81610d98565b82525050565b6000602082019050610dc86000830184610da4565b92915050565b610dd781610caa565b82525050565b6000602082019050610df26000830184610dce565b92915050565b610e0181610d2d565b82525050565b600060a082019050610e1c6000830188610dce565b610e296020830187610dce565b610e366040830186610dce565b610e436060830185610dce565b610e506080830184610df8565b9695505050505050565b6000602082019050610e6f6000830184610df8565b92915050565b600081519050919050565b600082825260208201905092915050565b60005b83811015610eaf578082015181840152602081019050610e94565b83811115610ebe576000848401525b50505050565b6000601f19601f8301169050919050565b6000610ee082610e75565b610eea8185610e80565b9350610efa818560208601610e91565b610f0381610ec4565b840191505092915050565b600060a0820190508181036000830152610f288188610ed5565b9050610f376020830187610dce565b610f446040830186610df8565b610f516060830185610da4565b610f5e6080830184610dce565b9695505050505050565b600081519050919050565b600082825260208201905092915050565b6000819050602082019050919050565b600082825260208201905092915050565b6000610fb082610e75565b610fba8185610f94565b9350610fca818560208601610e91565b610fd381610ec4565b840191505092915050565b610fe781610caa565b82525050565b610ff681610d2d565b82525050565b61100581610d98565b82525050565b600060a08301600083015184820360008601526110288282610fa5565b915050602083015161103d6020860182610fde565b5060408301516110506040860182610fed565b5060608301516110636060860182610ffc565b5060808301516110766080860182610fde565b508091505092915050565b600061108d838361100b565b905092915050565b6000602082019050919050565b60006110ad82610f68565b6110b78185610f73565b9350836020820285016110c985610f84565b8060005b8581101561110557848403895281516110e68582611081565b94506110f183611095565b925060208a019950506001810190506110cd565b50829750879550505050505092915050565b6000602082019050818103600083015261113181846110a2565b905092915050565b600080fd5b600080fd5b7f4e487b7100000000000000000000000000000000000000000000000000000000600052604160045260246000fd5b61117b82610ec4565b810181811067ffffffffffffffff8211171561119a57611199611143565b5b80604052505050565b60006111ad610c96565b90506111b98282611172565b919050565b600067ffffffffffffffff8211156111d9576111d8611143565b5b6111e282610ec4565b9050602081019050919050565b82818337600083830152505050565b600061121161120c846111be565b6111a3565b90508281526020810184848401111561122d5761122c61113e565b5b6112388482856111ef565b509392505050565b600082601f83011261125557611254611139565b5b81356112658482602086016111fe565b91505092915050565b60008060006060848603121561128757611286610ca0565b5b600084013567ffffffffffffffff8111156112a5576112a4610ca5565b5b6112b186828701611240565b93505060206112c286828701610ccb565b92505060406112d386828701610d56565b9150509250925092565b7f4e487b7100000000000000000000000000000000000000000000000000000000600052603260045260246000fd5b7f4e487b7100000000000000000000000000000000000000000000000000000000600052601260045260246000fd5b7f4e487b7100000000000000000000000000000000000000000000000000000000600052601160045260246000fd5b600061137582610caa565b915061138083610caa565b9250826113905761138f61130c565b5b828204905092915050565b60006060820190506113b06000830186610df8565b6113bd6020830185610df8565b6113ca6040830184610dce565b949350505050565b7f4e487b7100000000000000000000000000000000000000000000000000000000600052602260045260246000fd5b6000600282049050600182168061141957607f821691505b60208210810361142c5761142b6113d2565b5b50919050565b60008190508160005260206000209050919050565b60006020601f8301049050919050565b600082821b905092915050565b6000600883026114947fffffffffffffffffffffffffffffffffffffffffffffffffffffffffffffffff82611457565b61149e8683611457565b95508019841693508086168417925050509392505050565b6000819050919050565b60006114db6114d66114d184610caa565b6114b6565b610caa565b9050919050565b6000819050919050565b6114f5836114c0565b611509611501826114e2565b848454611464565b825550505050565b600090565b61151e611511565b6115298184846114ec565b505050565b5b8181101561154d57611542600082611516565b60018101905061152f565b5050565b601f8211156115925761156381611432565b61156c84611447565b8101602085101561157b578190505b61158f61158785611447565b83018261152e565b50505b505050565b600082821c905092915050565b60006115b560001984600802611597565b1980831691505092915050565b60006115ce83836115a4565b9150826002028217905092915050565b6115e782610e75565b67ffffffffffffffff811115611600576115ff611143565b5b61160a8254611401565b611615828285611551565b600060209050601f8311600181146116485760008415611636578287015190505b61164085826115c2565b8655506116a8565b601f19841661165686611432565b60005b8281101561167e57848901518255600182019150602085019450602081019050611659565b8683101561169b5784890151611697601f8916826115a4565b8355505b6001600288020188555050505b505050505050565b60006116bb82610caa565b91507fffffffffffffffffffffffffffffffffffffffffffffffffffffffffffffffff82036116ed576116ec61133b565b5b60018201905091905056fea2646970667358221220011fa2ba7abb1cf70a466ee6a53bf191dbaa74e38487927c594124839b22b0f564736f6c634300080f0033a2646970667358221220d00a2ac0c3eae39e42af226e28a2a0816c0d30f273127c7f66507de1233cc76c64736f6c634300080f0033",
  "linkReferences": {},
  "deployedLinkReferences": {}
}