{
  "_format": "hh-sol-artifact-1",
  "contractName": "CoinRecord",
  "sourceName": "contracts/CoinRecord.sol",
  "abi": [
    {
      "anonymous": false,
      "inputs": [
        {
          "indexed": false,
          "internalType": "address",
          "name": "",
          "type": "address"
        },
        {
          "indexed": false,
          "internalType": "address",
          "name": "",
          "type": "address"
        },
        {
          "indexed": false,
          "internalType": "uint256",
          "name": "",
          "type": "uint256"
        }
      ],
      "name": "TransactionHappened",
      "type": "event"
    },
    {
      "inputs": [
        {
          "internalType": "address",
          "name": "_contributer",
          "type": "address"
        }
      ],
      "name": "addContributer",
      "outputs": [],
      "stateMutability": "nonpayable",
      "type": "function"
    },
    {
      "inputs": [
        {
          "internalType": "address",
          "name": "_from",
          "type": "address"
        },
        {
          "internalType": "address",
          "name": "_to",
          "type": "address"
        },
        {
          "internalType": "uint256",
          "name": "_amount",
          "type": "uint256"
        }
      ],
      "name": "addTransaction",
      "outputs": [],
      "stateMutability": "nonpayable",
      "type": "function"
    },
    {
      "inputs": [],
      "name": "getNoOfContributers",
      "outputs": [
        {
          "internalType": "uint256",
          "name": "",
          "type": "uint256"
        }
      ],
      "stateMutability": "view",
      "type": "function"
    },
    {
      "inputs": [],
      "name": "getTotalMoney",
      "outputs": [
        {
          "internalType": "uint256",
          "name": "",
          "type": "uint256"
        }
      ],
      "stateMutability": "view",
      "type": "function"
    },
    {
      "inputs": [],
      "name": "getTransactions",
      "outputs": [
        {
          "components": [
            {
              "internalType": "address",
              "name": "from",
              "type": "address"
            },
            {
              "internalType": "address",
              "name": "to",
              "type": "address"
            },
            {
              "internalType": "uint256",
              "name": "amount",
              "type": "uint256"
            },
            {
              "internalType": "uint256",
              "name": "txnID",
              "type": "uint256"
            }
          ],
          "internalType": "struct CoinRecord.Record[]",
          "name": "",
          "type": "tuple[]"
        }
      ],
      "stateMutability": "view",
      "type": "function"
    }
  ],
  "bytecode": "0x60806040526000805534801561001457600080fd5b506107ee806100246000396000f3fe608060405234801561001057600080fd5b50600436106100575760003560e01c8063054ffab61461005c578063335208981461007a5780633d2b5f571461009657806383920e90146100b4578063fe73b27f146100d2575b600080fd5b6100646100ee565b604051610071919061047f565b60405180910390f35b610094600480360381019061008f91906104fd565b6100f7565b005b61009e6101c4565b6040516100ab919061047f565b60405180910390f35b6100bc6101ce565b6040516100c9919061064c565b60405180910390f35b6100ec60048036038101906100e7919061069a565b6102ed565b005b60008054905090565b60001515600160008373ffffffffffffffffffffffffffffffffffffffff1673ffffffffffffffffffffffffffffffffffffffff16815260200190815260200160002060009054906101000a900460ff161515036101c15760018060008373ffffffffffffffffffffffffffffffffffffffff1673ffffffffffffffffffffffffffffffffffffffff16815260200190815260200160002060006101000a81548160ff0219169083151502179055506001600260008282546101b9919061071c565b925050819055505b50565b6000600254905090565b60606003805480602002602001604051908101604052809291908181526020016000905b828210156102e457838290600052602060002090600402016040518060800160405290816000820160009054906101000a900473ffffffffffffffffffffffffffffffffffffffff1673ffffffffffffffffffffffffffffffffffffffff1673ffffffffffffffffffffffffffffffffffffffff1681526020016001820160009054906101000a900473ffffffffffffffffffffffffffffffffffffffff1673ffffffffffffffffffffffffffffffffffffffff1673ffffffffffffffffffffffffffffffffffffffff16815260200160028201548152602001600382015481525050815260200190600101906101f2565b50505050905090565b806000808282546102fe919061071c565b92505081905550600360405180608001604052808573ffffffffffffffffffffffffffffffffffffffff1681526020018473ffffffffffffffffffffffffffffffffffffffff168152602001838152602001600380549050815250908060018154018082558091505060019003906000526020600020906004020160009091909190915060008201518160000160006101000a81548173ffffffffffffffffffffffffffffffffffffffff021916908373ffffffffffffffffffffffffffffffffffffffff16021790555060208201518160010160006101000a81548173ffffffffffffffffffffffffffffffffffffffff021916908373ffffffffffffffffffffffffffffffffffffffff160217905550604082015181600201556060820151816003015550507ff1b72f66b957bf7850b009bef04d83879dd32d4b4e472c8a040545c1a1e33d5583838360405161045993929190610781565b60405180910390a1505050565b6000819050919050565b61047981610466565b82525050565b60006020820190506104946000830184610470565b92915050565b600080fd5b600073ffffffffffffffffffffffffffffffffffffffff82169050919050565b60006104ca8261049f565b9050919050565b6104da816104bf565b81146104e557600080fd5b50565b6000813590506104f7816104d1565b92915050565b6000602082840312156105135761051261049a565b5b6000610521848285016104e8565b91505092915050565b600081519050919050565b600082825260208201905092915050565b6000819050602082019050919050565b61055f816104bf565b82525050565b61056e81610466565b82525050565b60808201600082015161058a6000850182610556565b50602082015161059d6020850182610556565b5060408201516105b06040850182610565565b5060608201516105c36060850182610565565b50505050565b60006105d58383610574565b60808301905092915050565b6000602082019050919050565b60006105f98261052a565b6106038185610535565b935061060e83610546565b8060005b8381101561063f57815161062688826105c9565b9750610631836105e1565b925050600181019050610612565b5085935050505092915050565b6000602082019050818103600083015261066681846105ee565b905092915050565b61067781610466565b811461068257600080fd5b50565b6000813590506106948161066e565b92915050565b6000806000606084860312156106b3576106b261049a565b5b60006106c1868287016104e8565b93505060206106d2868287016104e8565b92505060406106e386828701610685565b9150509250925092565b7f4e487b7100000000000000000000000000000000000000000000000000000000600052601160045260246000fd5b600061072782610466565b915061073283610466565b9250827fffffffffffffffffffffffffffffffffffffffffffffffffffffffffffffffff03821115610767576107666106ed565b5b828201905092915050565b61077b816104bf565b82525050565b60006060820190506107966000830186610772565b6107a36020830185610772565b6107b06040830184610470565b94935050505056fea2646970667358221220ec88eb4d4c9f03a67c859ef84ed0585bf779c01890a14bcf2ed03cfd34f51ad664736f6c634300080f0033",
  "linkReferences": {},
  "deployedLinkReferences": {}
}